{
  "_format": "hh3-artifact-1",
  "contractName": "C",
  "sourceName": "contracts/c.sol",
  "abi": [
    {
      "inputs": [],
      "stateMutability": "nonpayable",
      "type": "constructor"
    },
    {
      "inputs": [],
      "name": "fname",
      "outputs": [
        {
          "internalType": "string",
          "name": "",
          "type": "string"
        }
      ],
      "stateMutability": "view",
      "type": "function"
    },
    {
      "inputs": [],
      "name": "lname",
      "outputs": [
        {
          "internalType": "string",
          "name": "",
          "type": "string"
        }
      ],
      "stateMutability": "view",
      "type": "function"
    }
  ],
  "bytecode": "0x60c0604052600560809081526476696a617960d81b60a0525f9061002390826100f9565b5034801561002f575f5ffd5b506040805180820190915260078152664461626b61726160c81b602082015260019061005b90826100f9565b506101b3565b634e487b7160e01b5f52604160045260245ffd5b600181811c9082168061008957607f821691505b6020821081036100a757634e487b7160e01b5f52602260045260245ffd5b50919050565b601f8211156100f457805f5260205f20601f840160051c810160208510156100d25750805b601f840160051c820191505b818110156100f1575f81556001016100de565b50505b505050565b81516001600160401b0381111561011257610112610061565b610126816101208454610075565b846100ad565b6020601f821160018114610158575f83156101415750848201515b5f19600385901b1c1916600184901b1784556100f1565b5f84815260208120601f198516915b828110156101875787850151825560209485019460019092019101610167565b50848210156101a457868401515f19600387901b60f8161c191681555b50505050600190811b01905550565b610199806101c05f395ff3fe608060405234801561000f575f5ffd5b5060043610610034575f3560e01c80631f797b1114610038578063e319990c14610056575b5f5ffd5b61004061005e565b60405161004d91906100f6565b60405180910390f35b6100406100ea565b6001805461006b9061012b565b80601f01602080910402602001604051908101604052809291908181526020018280546100979061012b565b80156100e25780601f106100b9576101008083540402835291602001916100e2565b820191905f5260205f20905b8154815290600101906020018083116100c557829003601f168201915b505050505081565b5f805461006b9061012b565b602081525f82518060208401528060208501604085015e5f604082850101526040601f19601f83011684010191505092915050565b600181811c9082168061013f57607f821691505b60208210810361015d57634e487b7160e01b5f52602260045260245ffd5b5091905056fea26469706673582212207c9e9c80e7e02168b3655bc7ad8e7dc55738242c60a772f5fb6ac3f83e78541064736f6c634300081c0033",
  "linkReferences": {},
  "deployedLinkReferences": {},
  "immutableReferences": {},
  "inputSourceName": "project/contracts/c.sol",
  "buildInfoId": "solc-0_8_28-b1b3329ccf2cea23df20a1c19c67b2b63a9ab2a5"
}